{
  "contractName": "TimeLock",
  "abi": [
    {
      "anonymous": false,
      "inputs": [
        {
          "indexed": false,
          "internalType": "address",
          "name": "sender",
          "type": "address"
        },
        {
          "indexed": false,
          "internalType": "uint256",
          "name": "amount",
          "type": "uint256"
        },
        {
          "indexed": false,
          "internalType": "uint256",
          "name": "releaseTime",
          "type": "uint256"
        },
        {
          "indexed": false,
          "internalType": "string",
          "name": "tokenType",
          "type": "string"
        }
      ],
      "name": "LogLockBoxDeposit",
      "type": "event"
    },
    {
      "anonymous": false,
      "inputs": [
        {
          "indexed": false,
          "internalType": "address",
          "name": "receiver",
          "type": "address"
        },
        {
          "indexed": false,
          "internalType": "uint256",
          "name": "amount",
          "type": "uint256"
        },
        {
          "indexed": false,
          "internalType": "string",
          "name": "tokenType",
          "type": "string"
        }
      ],
      "name": "LogLockBoxWithdrawal",
      "type": "event"
    },
    {
      "constant": true,
      "inputs": [
        {
          "internalType": "uint256",
          "name": "",
          "type": "uint256"
        }
      ],
      "name": "lockBoxStructs",
      "outputs": [
        {
          "internalType": "address",
          "name": "beneficiary",
          "type": "address"
        },
        {
          "internalType": "uint256",
          "name": "balance",
          "type": "uint256"
        },
        {
          "internalType": "uint256",
          "name": "releaseTime",
          "type": "uint256"
        },
        {
          "internalType": "string",
          "name": "tokenType",
          "type": "string"
        }
      ],
      "payable": false,
      "stateMutability": "view",
      "type": "function"
    },
    {
      "constant": false,
      "inputs": [
        {
          "internalType": "address",
          "name": "tokenContract",
          "type": "address"
        }
      ],
      "name": "initializer",
      "outputs": [],
      "payable": false,
      "stateMutability": "nonpayable",
      "type": "function"
    },
    {
      "constant": false,
      "inputs": [
        {
          "internalType": "uint256",
          "name": "amount",
          "type": "uint256"
        },
        {
          "internalType": "uint256",
          "name": "releaseTime",
          "type": "uint256"
        },
        {
          "internalType": "string",
          "name": "tokenType",
          "type": "string"
        }
      ],
      "name": "deposit",
      "outputs": [
        {
          "internalType": "bool",
          "name": "success",
          "type": "bool"
        }
      ],
      "payable": false,
      "stateMutability": "nonpayable",
      "type": "function"
    },
    {
      "constant": false,
      "inputs": [
        {
          "internalType": "string",
          "name": "tokenType",
          "type": "string"
        }
      ],
      "name": "withdraw",
      "outputs": [
        {
          "internalType": "bool",
          "name": "success",
          "type": "bool"
        }
      ],
      "payable": false,
      "stateMutability": "nonpayable",
      "type": "function"
    }
  ],
  "bytecode": "0x608060405234801561001057600080fd5b50610ee1806100206000396000f3fe608060405234801561001057600080fd5b506004361061004c5760003560e01c806331fb67c2146100515780633d8cf56f14610124578063a33920af1461020c578063fca32ac314610250575b600080fd5b61010a6004803603602081101561006757600080fd5b810190808035906020019064010000000081111561008457600080fd5b82018360208201111561009657600080fd5b803590602001918460018302840111640100000000831117156100b857600080fd5b91908080601f016020809104026020016040519081016040528093929190818152602001838380828437600081840152601f19601f820116905080830192505050505050509192919290505050610337565b604051808215151515815260200191505060405180910390f35b6101506004803603602081101561013a57600080fd5b81019080803590602001909291905050506107de565b604051808573ffffffffffffffffffffffffffffffffffffffff1673ffffffffffffffffffffffffffffffffffffffff16815260200184815260200183815260200180602001828103825283818151815260200191508051906020019080838360005b838110156101ce5780820151818401526020810190506101b3565b50505050905090810190601f1680156101fb5780820380516001836020036101000a031916815260200191505b509550505050505060405180910390f35b61024e6004803603602081101561022257600080fd5b81019080803573ffffffffffffffffffffffffffffffffffffffff1690602001909291905050506108d3565b005b61031d6004803603606081101561026657600080fd5b8101908080359060200190929190803590602001909291908035906020019064010000000081111561029757600080fd5b8201836020820111156102a957600080fd5b803590602001918460018302840111640100000000831117156102cb57600080fd5b91908080601f016020809104026020016040519081016040528093929190818152602001838380828437600081840152601f19601f820116905080830192505050505050509192919290505050610916565b604051808215151515815260200191505060405180910390f35b6000806000905060405160200180807f4554480000000000000000000000000000000000000000000000000000000000815250600301905060405160208183030381529060405280519060200120836040516020018082805190602001908083835b602083106103bc5780518252602082019150602081019050602083039250610399565b6001836020036101000a038019825116818451168082178552505050505050905001915050604051602081830303815290604052805190602001201415610633576000600260003373ffffffffffffffffffffffffffffffffffffffff1673ffffffffffffffffffffffffffffffffffffffff1681526020019081526020016000209050428160020154111561045157600080fd5b600081600101549050600082600101819055507f5d07e809ab46904adce265520000c98991420c71d9791700349c2056947af11a338287604051808473ffffffffffffffffffffffffffffffffffffffff1673ffffffffffffffffffffffffffffffffffffffff16815260200183815260200180602001828103825283818151815260200191508051906020019080838360005b838110156105005780820151818401526020810190506104e5565b50505050905090810190601f16801561052d5780820380516001836020036101000a031916815260200191505b5094505050505060405180910390a16000809054906101000a900473ffffffffffffffffffffffffffffffffffffffff1673ffffffffffffffffffffffffffffffffffffffff1663a9059cbb33836040518363ffffffff1660e01b8152600401808373ffffffffffffffffffffffffffffffffffffffff1673ffffffffffffffffffffffffffffffffffffffff16815260200182815260200192505050602060405180830381600087803b1580156105e457600080fd5b505af11580156105f8573d6000803e3d6000fd5b505050506040513d602081101561060e57600080fd5b810190808051906020019092919050505061062857600080fd5b6001925050506107d5565b6000600360003373ffffffffffffffffffffffffffffffffffffffff1673ffffffffffffffffffffffffffffffffffffffff16815260200190815260200160002090503373ffffffffffffffffffffffffffffffffffffffff168160000160009054906101000a900473ffffffffffffffffffffffffffffffffffffffff1673ffffffffffffffffffffffffffffffffffffffff16146106d257600080fd5b42816002015411156106e357600080fd5b600081600101549050600082600101819055507f5d07e809ab46904adce265520000c98991420c71d9791700349c2056947af11a338287604051808473ffffffffffffffffffffffffffffffffffffffff1673ffffffffffffffffffffffffffffffffffffffff16815260200183815260200180602001828103825283818151815260200191508051906020019080838360005b83811015610792578082015181840152602081019050610777565b50505050905090810190601f1680156107bf5780820380516001836020036101000a031916815260200191505b5094505050505060405180910390a16001925050505b80915050919050565b600181815481106107eb57fe5b90600052602060002090600402016000915090508060000160009054906101000a900473ffffffffffffffffffffffffffffffffffffffff1690806001015490806002015490806003018054600181600116156101000203166002900480601f0160208091040260200160405190810160405280929190818152602001828054600181600116156101000203166002900480156108c95780601f1061089e576101008083540402835291602001916108c9565b820191906000526020600020905b8154815290600101906020018083116108ac57829003601f168201915b5050505050905084565b806000806101000a81548173ffffffffffffffffffffffffffffffffffffffff021916908373ffffffffffffffffffffffffffffffffffffffff16021790555050565b600080600090506000809054906101000a900473ffffffffffffffffffffffffffffffffffffffff1673ffffffffffffffffffffffffffffffffffffffff166323b872dd3330886040518463ffffffff1660e01b8152600401808473ffffffffffffffffffffffffffffffffffffffff1673ffffffffffffffffffffffffffffffffffffffff1681526020018373ffffffffffffffffffffffffffffffffffffffff1673ffffffffffffffffffffffffffffffffffffffff1681526020018281526020019350505050602060405180830381600087803b1580156109f957600080fd5b505af1158015610a0d573d6000803e3d6000fd5b505050506040513d6020811015610a2357600080fd5b8101908080519060200190929190505050610a3d57600080fd5b610a45610dc9565b33816000019073ffffffffffffffffffffffffffffffffffffffff16908173ffffffffffffffffffffffffffffffffffffffff1681525050858160200181815250508481604001818152505083816060018190525060405160200180807f4554480000000000000000000000000000000000000000000000000000000000815250600301905060405160208183030381529060405280519060200120846040516020018082805190602001908083835b60208310610b185780518252602082019150602081019050602083039250610af5565b6001836020036101000a038019825116818451168082178552505050505050905001915050604051602081830303815290604052805190602001201415610c1d5780600260003373ffffffffffffffffffffffffffffffffffffffff1673ffffffffffffffffffffffffffffffffffffffff16815260200190815260200160002060008201518160000160006101000a81548173ffffffffffffffffffffffffffffffffffffffff021916908373ffffffffffffffffffffffffffffffffffffffff16021790555060208201518160010155604082015181600201556060820151816003019080519060200190610c10929190610e07565b5090505060019150610cdd565b80600360003373ffffffffffffffffffffffffffffffffffffffff1673ffffffffffffffffffffffffffffffffffffffff16815260200190815260200160002060008201518160000160006101000a81548173ffffffffffffffffffffffffffffffffffffffff021916908373ffffffffffffffffffffffffffffffffffffffff16021790555060208201518160010155604082015181600201556060820151816003019080519060200190610cd4929190610e07565b50905050600191505b7f9416bd6ffe061cf822d312420ae6a49845b4b648da487f63a4806b5db51ca31733878787604051808573ffffffffffffffffffffffffffffffffffffffff1673ffffffffffffffffffffffffffffffffffffffff16815260200184815260200183815260200180602001828103825283818151815260200191508051906020019080838360005b83811015610d80578082015181840152602081019050610d65565b50505050905090810190601f168015610dad5780820380516001836020036101000a031916815260200191505b509550505050505060405180910390a181925050509392505050565b6040518060800160405280600073ffffffffffffffffffffffffffffffffffffffff1681526020016000815260200160008152602001606081525090565b828054600181600116156101000203166002900490600052602060002090601f016020900481019282601f10610e4857805160ff1916838001178555610e76565b82800160010185558215610e76579182015b82811115610e75578251825591602001919060010190610e5a565b5b509050610e839190610e87565b5090565b610ea991905b80821115610ea5576000816000905550600101610e8d565b5090565b9056fea265627a7a723158202f61e26fd910a3b4fa5dc79f443a3319445863124a110533dafe9c6e2aa3e7ca64736f6c63430005100032",
  "source": "\npragma solidity 0.5.16 ;\n\ncontract TimeLock {\n    IERC20 token;\n\n    struct LockBoxStruct {\n        address beneficiary;\n        uint balance;\n        uint releaseTime;\n        string tokenType;//ether or some other erc20\n    }\n\n    LockBoxStruct[] public lockBoxStructs; // This could be a mapping by address, but these numbered lockBoxes support possibility of multiple tranches per address\n\n    mapping(address => LockBoxStruct) etherDeposits;\n    mapping(address => LockBoxStruct) nonEtherToken;//ERC20 but not ETH\n\n    event LogLockBoxDeposit(address sender, uint amount, uint releaseTime,string  tokenType);   \n    event LogLockBoxWithdrawal(address receiver, uint amount,string  tokenType);\n\n    // constructor(address tokenContract) public {\n    //     token = IERC20(tokenContract);\n    // }\n\n    function initializer(address tokenContract) public {\n       token = IERC20(tokenContract);\n    }\n\n    function deposit(uint amount, uint releaseTime, string memory tokenType) public returns(bool success) {\n        bool isSucess=false;\n        require(token.transferFrom(msg.sender, address(this), amount));\n        LockBoxStruct memory l;\n        l.beneficiary = msg.sender;\n        l.balance = amount;\n        l.releaseTime = releaseTime;\n        l.tokenType = tokenType;\n\n        if(keccak256(abi.encodePacked(tokenType)) == keccak256(abi.encodePacked('ETH'))) {\n              etherDeposits[msg.sender] = l;\n              isSucess = true;\n        } else {\n              nonEtherToken[msg.sender] = l;\n              isSucess = true;\n        }\n\n        emit LogLockBoxDeposit(msg.sender, amount, releaseTime, tokenType);\n        return isSucess;\n \n}\n\n    function withdraw(string memory tokenType) public returns(bool success) {\n        bool isSucess=false;\n       if(keccak256(abi.encodePacked(tokenType)) == keccak256(abi.encodePacked('ETH'))) {\n              LockBoxStruct storage l = etherDeposits[msg.sender];\n            //   require(l.beneficiary == msg.sender);\n               require(l.releaseTime <= now);\n               uint amount = l.balance;\n               l.balance = 0;\n               emit LogLockBoxWithdrawal(msg.sender, amount, tokenType);\n               require(token.transfer(msg.sender, amount));\n               isSucess = true;\n               //return true;\n        } else {\n              LockBoxStruct storage l = nonEtherToken[msg.sender];\n               require(l.beneficiary == msg.sender);\n               require(l.releaseTime <= now);\n               uint amount = l.balance;\n               l.balance = 0;\n               emit LogLockBoxWithdrawal(msg.sender, amount, tokenType);\n               isSucess = true;\n               //return true;\n        }\n\n        return isSucess ;\n\n        // LockBoxStruct storage l = lockBoxStructs[lockBoxNumber];\n        // require(l.beneficiary == msg.sender);\n        // require(l.releaseTime <= now);\n        // uint amount = l.balance;\n        // l.balance = 0;\n        // emit LogLockBoxWithdrawal(msg.sender, amount, tokenType);\n        // require(token.transfer(msg.sender, amount));\n        // return true;\n    }    \n\n}\n\n\n/**\n * @title ERC20 interface\n */\ninterface IERC20 {\n  function totalSupply() external view returns (uint256);\n\n  function balanceOf(address who) external view returns (uint256);\n\n  function allowance(address owner, address spender)\n    external view returns (uint256);\n\n  function transfer(address to, uint256 value) external returns (bool);\n\n  function approve(address spender, uint256 value)\n    external returns (bool);\n\n  function transferFrom(address from, address to, uint256 value)\n    external returns (bool);\n\n  event Transfer(\n    address indexed from,\n    address indexed to,\n    uint256 value\n  );\n\n  event Approval(\n    address indexed owner,\n    address indexed spender,\n    uint256 value\n  );\n}",
  "sourcePath": "/Users/conduent/11may/time-lock-contract/contracts/TimeLock.sol",
  "compiler": {
    "name": "solc",
    "version": "0.5.16+commit.9c3226ce.Emscripten.clang"
  },
  "schemaVersion": "3.4.0",
  "updatedAt": "2021-05-13T06:38:33.645Z",
  "networkType": "ethereum",
  "devdoc": {
    "methods": {}
  },
  "userdoc": {
    "methods": {}
  }
}